:020000040800F2
:10000000100400209D010008A5010008A7010008B8
:10001000A9010008AB010008AD01000800000000C4
:10002000000000000000000000000000AF01000818
:10003000B101000800000000B3010008490D0008EC
:10004000B7010008B7010008B7010008B7010008B0
:10005000B7010008B7010008B7010008B7010008A0
:10006000B7010008B7010008B7010008B701000890
:10007000B7010008B7010008B7010008B701000880
:10008000B7010008B7010008B7010008B701000870
:10009000B7010008B7010008B7010008B701000860
:1000A000B7010008B7010008B7010008B701000850
:1000B000B7010008B7010008B7010008B701000840
:1000C000B7010008B7010008B7010008B701000830
:1000D000B7010008B7010008B7010008B701000820
:1000E000B7010008B7010008B7010008B701000810
:1000F000B7010008B7010008B7010008B701000800
:10010000B7010008B7010008B7010008B7010008EF
:10011000B7010008B7010008B7010008B7010008DF
:10012000B7010008B7010008B7010008B7010008CF
:10013000B7010008B7010008B7010008B7010008BF
:10014000B7010008B7010008B7010008B7010008AF
:10015000B7010008B7010008B7010008B70100089F
:10016000B7010008B7010008B7010008B70100088F
:10017000B7010008B7010008B7010008000000003F
:10018000B7010008B7010008DFF80CD000F07AF8DA
:10019000004800472110000810040020064880474E
:1001A00006480047FEE7FEE7FEE7FEE7FEE7FEE75C
:1001B000FEE7FEE7FEE7FEE7F90D0008890100080B
:1001C0002DE9F05F0546002092469B46884606468C
:1001D000814640241BE0284641464746224600F01F
:1001E00041F853465A46C01A914110D31146184659
:1001F000224600F028F82D1A67EB01084F462246E8
:100200000120002100F01FF817EB00094E41201ECD
:10021000A4F10104DFDC484631462A464346BDE8E6
:10022000F09F40EA01039B0703D009E008C9121FB1
:1002300008C0042AFAD203E011F8013B00F8013BA0
:10024000521EF9D27047202A04DB203A00FA02F14C
:10025000002070479140C2F1200320FA03F31943B4
:1002600090407047202A04DB203A21FA02F0002156
:10027000704721FA02F3D040C2F1200291400843B6
:1002800019467047064C074D06E0E06840F0010350
:1002900094E8070098471034AC42F6D3FFF778FF94
:1002A000C8100008E810000870B5044600F0ECF82B
:1002B0000546601C02D004480078044400F0E4F8CD
:1002C000401BA042FAD370BD000000202DE9F84F7A
:1002D000DFF87CB100224FF001084FF0030A4FF025
:1002E0000F090BF1040E00BF0B6808FA02F423405B
:1002F000A3426ED14D68022D01D0122D0ED1D5082A
:1003000000EB850CDCF820505607F70E09FA07F6CB
:10031000B5430E69BE402E43CCF8206006685500F8
:100320000F790AFA05FC07F0030726EA0C06AF402E
:10033000374307604E68012E05D0022E03D0112EE0
:1003400001D0122E0ED18668CF6826EA0C06AF4087
:10035000374387604668A6430C79C4F30014944081
:1003600034434460C6688C6826EA0C06AC403443CB
:10037000C4604C68E40065D5364C256845F480457A
:100380002560246822F0030504F480440094324C74
:100390002E19D6F8084895072F0F09FA07F5AC4330
:1003A0002E4DA84201D1002524E02D4DA84201D1B7
:1003B00001251FE02B4DA84201D102251AE02A4D4C
:1003C000A84201D1032515E0284DA84202D10425F9
:1003D00010E037E0264DA84201D105250AE0254D61
:1003E000A84201D1062505E0234DA84201D10725E9
:1003F00000E00825BD402543C6F80858DBF800405A
:100400005D464E689C43F60300D51C432C60DEF825
:10041000004075464E689C43B60300D51C432C60D3
:100420000B4D08352C684E689C43F60200D51C43E2
:100430002C60074D0C352C684E689C43B60200D5E5
:100440001C432C60521C102AFFF44EAFBDE8F88FFD
:10045000003C0140443802400030014000000240AE
:100460000004024000080240000C0240001002405C
:100470000014024000180240001C02400AB18161D1
:1004800070470904FBE700000148806870470000DE
:1004900000000020024881680278114481607047A2
:1004A000000000200B4810B5016841F400710160A4
:1004B000016841F480610160016841F4807101606C
:1004C000032000F08BF8002000F006F800F024F87C
:1004D000002010BD003C024070B50D4D04464FF4A5
:1004E0007A712878B1FBF0F00A490968B1FBF0F0A5
:1004F00000F0EFFA48B9102C07D200222146501E16
:1005000000F04CF800206C6070BD012070BD000050
:10051000000000200C0000201F4808B5016841F4CD
:1005200080410160006800F4804000901A48001F7C
:10053000016841F080510160006800F08050009037
:10054000072000F04BF8002211466FF00B0000F07E
:1005500025F8002211466FF00A0000F01FF8002273
:1005600011466FF0090000F019F800221146501FE3
:1005700000F014F800221146101F00F00FF80022BE
:100580001146901E00F00AF80022BDE8084011460E
:10059000501E00F003B8000044380240F0B40E4B87
:1005A0001B680C46C3F30223C3F10705042D00D9D1
:1005B0000425191D072901D2002300E0DB1E0126B6
:1005C00006FA05F1491E214099409E40761E1640CC
:1005D0003143F0BC00F0A8BB0CED00E0064900F090
:1005E000070208684FF6FF03184040EA0220034A5A
:1005F00010430860704700000CED00E00000FA05B1
:100600002DE9F0470E46050065D0DFF81481D8F8D3
:100610000000F7B200F00F00B04207D288F8007077
:10062000D8F8000000F00F00B04254D128683D4CCB
:10063000810712D5400703D5206840F4E0502060C0
:100640002878000703D5206840F4604020602068C7
:10065000A96820F0F000084320602878C0072DD05A
:10066000304968680839012812D0022813D00328BD
:1006700011D00968890700292DDA216821F00301CA
:1006800001432160FFF700FF814641F2883A0EE006
:1006900009688903EFE709688901ECE7FFF7F4FED1
:1006A000A0EB0901514502D90320BDE8F08720687D
:1006B000696800F00C00B0EB810FEFD1D8F80010A2
:1006C000404601F00F01B14207D90770006800F001
:1006D0000F00B04201D00120E7E72878400705D598
:1006E0002068E96820F4E05008432060287800077B
:1006F00006D52068296920F4604040EAC1002060E6
:1007000000F01CF82168084AC1F30311515CC8408D
:10071000064908600020FFF7DFFE0020C5E7000063
:10072000003C024008380240B81000080C000020CD
:1007300001480068704700000C000020154810B503
:10074000006810F00C02144813D04110042A0FD096
:10075000082A0ED10F4C241F2268236802F03F02A2
:100760005B0207D52068C0F38810A0FB010106E0FA
:10077000084610BD2168C1F38811A1FB00010023C8
:10078000FFF71EFD2168C1F30141491C4900B0FB80
:10079000F1F010BD083802400024F4002DE9F84FB4
:1007A000050076D02878DFF8F8B2BE4CC00749D0F3
:1007B000DBF800105846C1F38101012908D0006818
:1007C000C0F3810002280AD1201D0068400206D52E
:1007D0002068800336D568680028E2D032E0686877
:1007E000B0F5803F10D0B0F5A02F206810D020F4D5
:1007F00080302060206820F4802020606868A0B1EC
:10080000FFF742FE06460CE0206840F48030F4E733
:1008100040F480202060F7E7FFF736FE801B642855
:1008200073D820688003F7D50CE0FFF72DFE06464D
:1008300005E000BFFFF728FE801B6428F0D8206881
:100840008003F7D42878DFF8608280074FF0000932
:100850003ED5DBF80010584611F00C0F09D00068A7
:10086000C0F3810002280BD18D48001F00684002B0
:1008700006D42068800715D5E868012809D111E061
:10088000E868B8B10120C8F80000FFF7FDFD064692
:1008900005E002E1FFF7F8FD801B0228C0D82068C0
:1008A0008007F7D52068296920F0F80040EAC100E8
:1008B00020600DE0C8F80090FFF7E6FD064604E072
:1008C000FFF7E2FD801B02281FD820688007F7D4BD
:1008D0002878000722D5724E744869696C3671B168
:1008E00001210160FFF7D0FD074604E0FFF7CCFDD2
:1008F000C01B022809D830688007F7D50EE0C0F881
:100900000090FFF7C1FD074605E083E0FFF7BCFD5F
:10091000C01B02287ED830688007F7D428784007AB
:1009200068D5DFF87CA100270AF1380ADAF8000060
:10093000C0000BD4DAF8001041F08051CAF8001062
:10094000DAF80000012700F080500090584E30681F
:10095000C00510D4306840F480703060FFF794FD1B
:10096000009005E0FFF790FD0099401A022851D849
:100970003068C005F6D54A4EA868683601280FD001
:100980000528306810D020F001003060306820F079
:1009900004003060A868B8B1FFF776FD00900FE062
:1009A000306840F00100F4E740F004003060F7E701
:1009B000FFF76AFD0099411A41F28830814264D8FC
:1009C00030688007F4D50EE0FFF75EFD009007E089
:1009D000FFF75AFD0099411A41F28830814254D8FC
:1009E00030688007F4D42FB1DAF8001021F080517C
:1009F000CAF80010A869C0B3DBF80010C1F3810188
:100A000002294AD00228484607D0C8F86000FFF7FC
:100A10003BFD00E039E005463AE04746C8F8600093
:100A2000FFF732FD064604E0FFF72EFD801B02288B
:100A30002BD820688001F7D4D5E907010843A96ABB
:100A40001C4A490802EB01416A6A41EA82110843E3
:100A500095F82C1040EA01611148001F0160012047
:100A60003866FFF711FD054605E014E0FFF70CFDC1
:100A7000401B022809D820688001F7D50BE000BF91
:100A8000FFF702FD401B022802D90320BDE8F88FC2
:100A900020688001F4D40020F8E70120F6E7000088
:100AA000083802400038024000004742800E4742AA
:100AB000007000400000FFFF4FF0E02104280869AB
:100AC00003D020F004000861704740F00400FAE70A
:100AD000704710B5401EB0F1807F01D3012010BDDA
:100AE0004FF0E02460610F21601700F01DF9002035
:100AF000A06107202061002010BD10B5FFF7E8FFBE
:100B000010BD00002DE9F04F7F4887B00024016838
:100B100041F010010160016801F0100105910168C8
:100B200041F004010160016801F0040105910168D0
:100B300041F080010160016801F0800105910168C8
:100B400041F001010160016801F0010105910168B6
:100B500041F002010160016801F0020105910168A4
:100B600041F0080101600068002200F008000590D3
:100B700008216648FFF782FC012211466448FFF70E
:100B80007DFC4FF2DF0A002251466248FFF776FCF7
:100B900000224FF440715E48FFF770FC4FF4807BF9
:100BA000002259465C48FFF769FC002230215B486F
:100BB000FFF764FC082601250096CDE9015469463B
:100BC00052480394FFF782FB40F201300090CDE9D8
:100BD000015469464E480394FFF778FB00960226BD
:100BE000CDE901640527CDE9034769464848FFF789
:100BF0006DFB4B480095CDE9010469464648FFF777
:100C000065FB10200090CDE901644FF00608CDE9A6
:100C1000034869464048FFF759FBE0200090CDE9C2
:100C20000164CDE9034769463B48FFF74FFB4FF0AE
:100C30000409CDE90094694638480294FFF746FB61
:100C4000A8020090CDE90164CDE903476946334825
:100C5000FFF73CFBCDF800A0CDE9015469462D48D3
:100C60000394FFF733FB4FF4A4500090CDE90164E7
:100C7000CDE9034869462648FFF728FBCDF800B0C8
:100C8000CDE90154694624480394FFF71FFB68022D
:100C9000CDE90004694620480294FFF717FB4FF4A2
:100CA000E0500090CDE901640A20CDE90340694697
:100CB0001948FFF70BFB2020CDE9000469461548D1
:100CC0000294FFF703FB30200090CDE90154694600
:100CD00012480394FFF7FAFA4FF4107000901220B4
:100CE000CDE90105CDE9034969460C48FFF7EEFA65
:100CF0000C480096CDE9010469460448FFF7E6FA7E
:100D000007B0BDE8F08F000030380240001002400C
:100D100000080240000C02400000024000040240B3
:100D200000001110000012100907090E002806DA51
:100D300000F00F0000F1E02080F8141D704700F172
:100D4000E02080F80014704710B5FFF7A3FBBDE862
:100D50001040FFF7D2BE000030B5254893B0002404
:100D6000016841F080510160006800F080501190EE
:100D70002048016841F4804101600068022500F4C8
:100D8000804011900120039010200490009506955A
:100D90000820CDE907403220099004200A9007205E
:100DA0000B906846FFF7FAFC00B1FEE70F20CDE993
:100DB0000C054FF4A050CDE90E404FF48050109038
:100DC00000210CA8FFF71CFC00B1FEE7FFF7B0FC08
:100DD0004FF47A71B0FBF1F0FFF77BFE0420FFF7D0
:100DE0006BFE00221146501EFFF7D8FB13B030BD3A
:100DF00040380240007000401048016841F4700122
:100E000001600F48016841F0010101600C4A0021B6
:100E10000832116002680B4B1A400260031D0A4A37
:100E20001A60026822F48022026005480C300160DA
:100E300002495806803908607047000088ED00E0DC
:100E400000380240FFFFF6FE1030002402E008C820
:100E5000121F08C1002AFAD170477047002001E034
:100E600001C1121F002AFBD1704710B50446322081
:100E7000FFF71AFA0121204600F0A2F82046BDE84B
:100E80001040022100F09CB8F0B587B00446DDE9BF
:100E90000E67DDE910CEDDE90C05CDE90012ADF8F5
:100EA00014600390ADF818C004950293ADF8167065
:100EB0008DF81AE0684600F007F81C2269462046C3
:100EC000FFF7AFF907B0F0BD10B50446807E0128EA
:100ED00016D0002821D13220FFF7E6F9282120463C
:100EE00000F06EF82821204600F06AF828212046FC
:100EF00000F066F828212046BDE8104000F060B8F8
:100F00003220FFF7D1F93821204600F059F8382176
:100F1000204600F055F83821EDE710BD70B50446C5
:100F20000D463220FFF7C0F9E18A0122A068FFF7E1
:100F3000A5FA218B0022E068FFF7A0FA20690022C1
:100F40000178FF20884081B220680068FFF796FA98
:100F500020690122007885402068A9B20068FFF767
:100F60008DFAA18A01226068FFF788FAA18A606879
:100F7000BDE870400022FFF781BA70B505460C4607
:100F80000220FFF791F903E02846FFF7C7FF641C32
:100F900021780029F8D170BD70B5064614460D467B
:100FA0000120FFF781F945B1012D08D1C034E1B22C
:100FB0003046BDE8704000F003B88034F7E770BDFC
:100FC00070B504460D463220FFF76EF9E18A002223
:100FD000A068FFF753FA218B0022E068FFF74EFA72
:100FE000206900220178FF20884081B220680068D3
:100FF000FFF744FA20690122007885402068A9B2F1
:101000000068FFF73BFAA18A01226068FFF736FA11
:10101000A18A6068BDE870400022FFF72FBA000087
:1010200094B0FFF73FFAFFF797FEFFF76BFD164806
:101030000DF1340C00F108011EC98CE81E00D0E946
:101040000010CDE91110012108024200CDE9020291
:10105000CDE9040111A80D4BCDE900300C4A0DA9D2
:1010600006A8FFF711FF0522012106A8FFF794FF4C
:1010700008A106A8FFF781FF42F21070FFF714F9EC
:1010800006A8FFF7F2FEFEE7A010000800080240E5
:1010900000000240676F6F64206A6F6221000000E9
:1010A0004000800010002000000C0240000C0240B4
:1010B00000040240000402400000000000000000A4
:1010C0000102030406070809E810000800000020D8
:1010D000100000004C0E0008F8100008100000205E
:1010E000000400005C0E0008010000001000000079
:0810F000000000000024F400E0
:040000050800018965
:00000001FF
